{
  "contractName": "Transacoes",
  "abi": [
    {
      "constant": true,
      "inputs": [
        {
          "name": "",
          "type": "uint256"
        }
      ],
      "name": "transacoes",
      "outputs": [
        {
          "name": "id",
          "type": "uint256"
        },
        {
          "name": "comprador",
          "type": "string"
        },
        {
          "name": "vendedor",
          "type": "string"
        },
        {
          "name": "produto",
          "type": "string"
        },
        {
          "name": "preco",
          "type": "uint256"
        },
        {
          "name": "quantidade",
          "type": "uint256"
        },
        {
          "name": "info_adicionais",
          "type": "string"
        },
        {
          "name": "finalizada",
          "type": "bool"
        }
      ],
      "payable": false,
      "stateMutability": "view",
      "type": "function",
      "signature": "0x4c0e5a4d"
    },
    {
      "constant": true,
      "inputs": [],
      "name": "qntdTransacoes",
      "outputs": [
        {
          "name": "",
          "type": "uint256"
        }
      ],
      "payable": false,
      "stateMutability": "view",
      "type": "function",
      "signature": "0x4c2bdd88"
    },
    {
      "inputs": [],
      "payable": false,
      "stateMutability": "nonpayable",
      "type": "constructor",
      "signature": "constructor"
    },
    {
      "anonymous": false,
      "inputs": [
        {
          "indexed": false,
          "name": "id",
          "type": "uint256"
        },
        {
          "indexed": false,
          "name": "comprador",
          "type": "string"
        },
        {
          "indexed": false,
          "name": "vendedor",
          "type": "string"
        },
        {
          "indexed": false,
          "name": "produto",
          "type": "string"
        },
        {
          "indexed": false,
          "name": "preco",
          "type": "uint256"
        },
        {
          "indexed": false,
          "name": "quantidade",
          "type": "uint256"
        },
        {
          "indexed": false,
          "name": "info_adicionais",
          "type": "string"
        },
        {
          "indexed": false,
          "name": "finalizada",
          "type": "bool"
        }
      ],
      "name": "TransacaoCriada",
      "type": "event",
      "signature": "0x44c2316d2d1a4ecc9e3381874e5b47f5ebf7dad31a32ef934a3c8f83e968b978"
    },
    {
      "anonymous": false,
      "inputs": [
        {
          "indexed": false,
          "name": "id",
          "type": "uint256"
        },
        {
          "indexed": false,
          "name": "finalizada",
          "type": "bool"
        }
      ],
      "name": "TransacaoFinalizada",
      "type": "event",
      "signature": "0xa6ec85e6b6b6e85f27ce13fff291d6876315a67f66e3bc5a35e425eb168da757"
    },
    {
      "constant": false,
      "inputs": [
        {
          "name": "_comprador",
          "type": "string"
        },
        {
          "name": "_vendedor",
          "type": "string"
        },
        {
          "name": "_produto",
          "type": "string"
        },
        {
          "name": "_preco",
          "type": "uint256"
        },
        {
          "name": "_quantidade",
          "type": "uint256"
        },
        {
          "name": "_info_adicionais",
          "type": "string"
        }
      ],
      "name": "criarTransacao",
      "outputs": [],
      "payable": false,
      "stateMutability": "nonpayable",
      "type": "function",
      "signature": "0x0e283d69"
    },
    {
      "constant": false,
      "inputs": [
        {
          "name": "_id",
          "type": "uint256"
        }
      ],
      "name": "Finalizar",
      "outputs": [],
      "payable": false,
      "stateMutability": "nonpayable",
      "type": "function",
      "signature": "0xa8439a57"
    }
  ],
  "bytecode": "0x6080604052600080553480156200001557600080fd5b50620001316040805190810160405280601181526020017f4e6f6d6520646f20436f6d707261646f720000000000000000000000000000008152506040805190810160405280601081526020017f4e6f6d6520646f2056656e6465646f72000000000000000000000000000000008152506040805190810160405280600f81526020017f4e6f6d6520646f2050726f6475746f0000000000000000000000000000000000815250600080606060405190810160405280602481526020017f496e666f726d61c3a7c3b5657320696d706f7274616e7465732061646963696f81526020017f6e6169730000000000000000000000000000000000000000000000000000000081525062000137640100000000026401000000009004565b620004ea565b600080546001908101808355604080516101008101825282815260208082018c81528284018c9052606083018b9052608083018a905260a0830189905260c0830188905260e083018790529386528481529190942084518155915180519293620001aa9390850192919091019062000445565b5060408201518051620001c891600284019160209091019062000445565b5060608201518051620001e691600384019160209091019062000445565b506080820151600482015560a0820151600582015560c082015180516200021891600684019160209091019062000445565b5060e08201518160070160006101000a81548160ff0219169083151502179055509050507f44c2316d2d1a4ecc9e3381874e5b47f5ebf7dad31a32ef934a3c8f83e968b978600054878787878787600060405180898152602001806020018060200180602001888152602001878152602001806020018615151515815260200185810385528c818151815260200191508051906020019080838360005b83811015620002cf578181015183820152602001620002b5565b50505050905090810190601f168015620002fd5780820380516001836020036101000a031916815260200191505b5085810384528b5181528b516020918201918d019080838360005b838110156200033257818101518382015260200162000318565b50505050905090810190601f168015620003605780820380516001836020036101000a031916815260200191505b5085810383528a5181528a516020918201918c019080838360005b83811015620003955781810151838201526020016200037b565b50505050905090810190601f168015620003c35780820380516001836020036101000a031916815260200191505b50858103825287518152875160209182019189019080838360005b83811015620003f8578181015183820152602001620003de565b50505050905090810190601f168015620004265780820380516001836020036101000a031916815260200191505b509c5050505050505050505050505060405180910390a1505050505050565b828054600181600116156101000203166002900490600052602060002090601f016020900481019282601f106200048857805160ff1916838001178555620004b8565b82800160010185558215620004b8579182015b82811115620004b85782518255916020019190600101906200049b565b50620004c6929150620004ca565b5090565b620004e791905b80821115620004c65760008155600101620004d1565b90565b610f3080620004fa6000396000f3fe6080604052600436106100615763ffffffff7c01000000000000000000000000000000000000000000000000000000006000350416630e283d6981146100665780634c0e5a4d146102bc5780634c2bdd88146104b0578063a8439a57146104d7575b600080fd5b34801561007257600080fd5b506102ba600480360360c081101561008957600080fd5b8101906020810181356401000000008111156100a457600080fd5b8201836020820111156100b657600080fd5b803590602001918460018302840111640100000000831117156100d857600080fd5b91908080601f016020809104026020016040519081016040528093929190818152602001838380828437600092019190915250929594936020810193503591505064010000000081111561012b57600080fd5b82018360208201111561013d57600080fd5b8035906020019184600183028401116401000000008311171561015f57600080fd5b91908080601f01602080910402602001604051908101604052809392919081815260200183838082843760009201919091525092959493602081019350359150506401000000008111156101b257600080fd5b8201836020820111156101c457600080fd5b803590602001918460018302840111640100000000831117156101e657600080fd5b91908080601f016020809104026020016040519081016040528093929190818152602001838380828437600092019190915250929584359560208601359591945092506060810191506040013564010000000081111561024557600080fd5b82018360208201111561025757600080fd5b8035906020019184600183028401116401000000008311171561027957600080fd5b91908080601f016020809104026020016040519081016040528093929190818152602001838380828437600092019190915250929550610501945050505050565b005b3480156102c857600080fd5b506102e6600480360360208110156102df57600080fd5b50356107fb565b60405180898152602001806020018060200180602001888152602001878152602001806020018615151515815260200185810385528c818151815260200191508051906020019080838360005b8381101561034b578181015183820152602001610333565b50505050905090810190601f1680156103785780820380516001836020036101000a031916815260200191505b5085810384528b5181528b516020918201918d019080838360005b838110156103ab578181015183820152602001610393565b50505050905090810190601f1680156103d85780820380516001836020036101000a031916815260200191505b5085810383528a5181528a516020918201918c019080838360005b8381101561040b5781810151838201526020016103f3565b50505050905090810190601f1680156104385780820380516001836020036101000a031916815260200191505b50858103825287518152875160209182019189019080838360005b8381101561046b578181015183820152602001610453565b50505050905090810190601f1680156104985780820380516001836020036101000a031916815260200191505b509c5050505050505050505050505060405180910390f35b3480156104bc57600080fd5b506104c5610a76565b60408051918252519081900360200190f35b3480156104e357600080fd5b506102ba600480360360208110156104fa57600080fd5b5035610a7c565b600080546001908101808355604080516101008101825282815260208082018c81528284018c9052606083018b9052608083018a905260a0830189905260c0830188905260e08301879052938652848152919094208451815591518051929361057293908501929190910190610e21565b506040820151805161058e916002840191602090910190610e21565b50606082015180516105aa916003840191602090910190610e21565b506080820151600482015560a0820151600582015560c082015180516105da916006840191602090910190610e21565b5060e08201518160070160006101000a81548160ff0219169083151502179055509050507f44c2316d2d1a4ecc9e3381874e5b47f5ebf7dad31a32ef934a3c8f83e968b978600054878787878787600060405180898152602001806020018060200180602001888152602001878152602001806020018615151515815260200185810385528c818151815260200191508051906020019080838360005b8381101561068f578181015183820152602001610677565b50505050905090810190601f1680156106bc5780820380516001836020036101000a031916815260200191505b5085810384528b5181528b516020918201918d019080838360005b838110156106ef5781810151838201526020016106d7565b50505050905090810190601f16801561071c5780820380516001836020036101000a031916815260200191505b5085810383528a5181528a516020918201918c019080838360005b8381101561074f578181015183820152602001610737565b50505050905090810190601f16801561077c5780820380516001836020036101000a031916815260200191505b50858103825287518152875160209182019189019080838360005b838110156107af578181015183820152602001610797565b50505050905090810190601f1680156107dc5780820380516001836020036101000a031916815260200191505b509c5050505050505050505050505060405180910390a1505050505050565b600160208181526000928352604092839020805481840180548651600296821615610100026000190190911695909504601f810185900485028601850190965285855290949193929091908301828280156108975780601f1061086c57610100808354040283529160200191610897565b820191906000526020600020905b81548152906001019060200180831161087a57829003601f168201915b50505060028085018054604080516020601f60001961010060018716150201909416959095049283018590048502810185019091528181529596959450909250908301828280156109295780601f106108fe57610100808354040283529160200191610929565b820191906000526020600020905b81548152906001019060200180831161090c57829003601f168201915b5050505060038301805460408051602060026001851615610100026000190190941693909304601f81018490048402820184019092528181529495949350908301828280156109b95780601f1061098e576101008083540402835291602001916109b9565b820191906000526020600020905b81548152906001019060200180831161099c57829003601f168201915b505050505090806004015490806005015490806006018054600181600116156101000203166002900480601f016020809104026020016040519081016040528092919081815260200182805460018160011615610100020316600290048015610a635780601f10610a3857610100808354040283529160200191610a63565b820191906000526020600020905b815481529060010190602001808311610a4657829003601f168201915b5050506007909301549192505060ff1688565b60005481565b610a84610e9f565b600082815260016020818152604092839020835161010080820186528254825282850180548751600297821615909302600019011695909504601f8101859004850282018501909652858152909491938584019391929091830182828015610b2d5780601f10610b0257610100808354040283529160200191610b2d565b820191906000526020600020905b815481529060010190602001808311610b1057829003601f168201915b5050509183525050600282810180546040805160206001841615610100026000190190931694909404601f81018390048302850183019091528084529381019390830182828015610bbf5780601f10610b9457610100808354040283529160200191610bbf565b820191906000526020600020905b815481529060010190602001808311610ba257829003601f168201915b505050918352505060038201805460408051602060026001851615610100026000190190941693909304601f8101849004840282018401909252818152938201939291830182828015610c535780601f10610c2857610100808354040283529160200191610c53565b820191906000526020600020905b815481529060010190602001808311610c3657829003601f168201915b505050505081526020016004820154815260200160058201548152602001600682018054600181600116156101000203166002900480601f016020809104026020016040519081016040528092919081815260200182805460018160011615610100020316600290048015610d095780601f10610cde57610100808354040283529160200191610d09565b820191906000526020600020905b815481529060010190602001808311610cec57829003601f168201915b50505091835250506007919091015460ff16151560209182015260e0820180511590526000848152600180835260409091208351815583830151805194955085949193610d5b93850192910190610e21565b5060408201518051610d77916002840191602090910190610e21565b5060608201518051610d93916003840191602090910190610e21565b506080820151600482015560a0820151600582015560c08201518051610dc3916006840191602090910190610e21565b5060e091820151600791909101805460ff191691151591909117905581015160408051848152911515602083015280517fa6ec85e6b6b6e85f27ce13fff291d6876315a67f66e3bc5a35e425eb168da7579281900390910190a15050565b828054600181600116156101000203166002900490600052602060002090601f016020900481019282601f10610e6257805160ff1916838001178555610e8f565b82800160010185558215610e8f579182015b82811115610e8f578251825591602001919060010190610e74565b50610e9b929150610ee7565b5090565b61010060405190810160405280600081526020016060815260200160608152602001606081526020016000815260200160008152602001606081526020016000151581525090565b610f0191905b80821115610e9b5760008155600101610eed565b9056fea165627a7a72305820682a9c12970ba054bd045ea0511a96703ed6a05e589497504ec34e622ab6671c0029",
  "source": "pragma solidity ^0.5.0;\n\ncontract Transacoes {\n    uint public qntdTransacoes = 0;\n\n    struct Transacao {\n        uint id;\n        string comprador;\n        string vendedor;\n        string produto;\n        uint preco;\n        uint quantidade;\n        string info_adicionais;\n        bool finalizada;\n    }\n\n    mapping(uint => Transacao) public transacoes;\n\n    event TransacaoCriada(\n        uint id,\n        string comprador,\n        string vendedor,\n        string produto,\n        uint preco,\n        uint quantidade,\n        string info_adicionais,\n        bool finalizada\n    );\n\n    event TransacaoFinalizada(\n        uint id,\n        bool finalizada\n    );\n\n    constructor() public {\n        criarTransacao(\"Nome do Comprador\", \"Nome do Vendedor\", \"Nome do Produto\", 0, 0, \"Informações importantes adicionais\");\n    }\n\n    function criarTransacao(string memory _comprador, string memory _vendedor, string memory _produto, \n    uint _preco, uint _quantidade, string memory _info_adicionais) public {\n        qntdTransacoes ++;\n        transacoes[qntdTransacoes] = Transacao(qntdTransacoes, _comprador, _vendedor, _produto, _preco, _quantidade, _info_adicionais, false);\n        emit TransacaoCriada(qntdTransacoes, _comprador, _vendedor, _produto, _preco, _quantidade, _info_adicionais, false);\n    }\n\n    function Finalizar(uint _id) public {\n        Transacao memory _transacao = transacoes[_id];\n        _transacao.finalizada = !_transacao.finalizada;\n        transacoes[_id] = _transacao;\n        emit TransacaoFinalizada(_id, _transacao.finalizada);\n    }\n}",
  "sourcePath": "/Users/giovannafilipakis/eth-produtos/contracts/Transacoes.sol",
  "compiler": {
    "name": "solc",
    "version": "0.5.0+commit.1d4f565a.Emscripten.clang"
  },
  "schemaVersion": "3.0.1",
  "updatedAt": "2020-06-12T12:01:53.103Z",
  "devdoc": {
    "methods": {}
  },
  "userdoc": {
    "methods": {}
  }
}