{
  "contractName": "Transacoes",
  "abi": [
    {
      "constant": true,
      "inputs": [
        {
          "name": "",
          "type": "uint256"
        }
      ],
      "name": "transacoes",
      "outputs": [
        {
          "name": "id",
          "type": "uint256"
        },
        {
          "name": "comprador",
          "type": "string"
        },
        {
          "name": "vendedor",
          "type": "string"
        },
        {
          "name": "produto",
          "type": "string"
        },
        {
          "name": "preco",
          "type": "uint256"
        },
        {
          "name": "quantidade",
          "type": "uint256"
        },
        {
          "name": "info_adicionais",
          "type": "string"
        },
        {
          "name": "finalizada",
          "type": "bool"
        }
      ],
      "payable": false,
      "stateMutability": "view",
      "type": "function",
      "signature": "0x4c0e5a4d"
    },
    {
      "constant": true,
      "inputs": [],
      "name": "qntdTransacoes",
      "outputs": [
        {
          "name": "",
          "type": "uint256"
        }
      ],
      "payable": false,
      "stateMutability": "view",
      "type": "function",
      "signature": "0x4c2bdd88"
    },
    {
      "inputs": [],
      "payable": false,
      "stateMutability": "nonpayable",
      "type": "constructor",
      "signature": "constructor"
    },
    {
      "constant": false,
      "inputs": [
        {
          "name": "_comprador",
          "type": "string"
        },
        {
          "name": "_vendedor",
          "type": "string"
        },
        {
          "name": "_produto",
          "type": "string"
        },
        {
          "name": "_preco",
          "type": "uint256"
        },
        {
          "name": "_quantidade",
          "type": "uint256"
        },
        {
          "name": "_info_adicionais",
          "type": "string"
        }
      ],
      "name": "criarTransacao",
      "outputs": [],
      "payable": false,
      "stateMutability": "nonpayable",
      "type": "function",
      "signature": "0x0e283d69"
    }
  ],
  "bytecode": "0x60806040526000805534801561001457600080fd5b5061012e6040805190810160405280601181526020017f4e6f6d6520646f20436f6d707261646f720000000000000000000000000000008152506040805190810160405280601081526020017f4e6f6d6520646f2056656e6465646f72000000000000000000000000000000008152506040805190810160405280600f81526020017f4e6f6d6520646f2050726f6475746f0000000000000000000000000000000000815250600080606060405190810160405280602481526020017f496e666f726d61c3a7c3b5657320696d706f7274616e7465732061646963696f81526020017f6e61697300000000000000000000000000000000000000000000000000000000815250610133640100000000026401000000009004565b6102cb565b600080546001908101808355604080516101008101825282815260208082018c81528284018c9052606083018b9052608083018a905260a0830189905260c0830188905260e0830187905293865284815291909420845181559151805192936101a493908501929190910190610230565b50604082015180516101c0916002840191602090910190610230565b50606082015180516101dc916003840191602090910190610230565b506080820151600482015560a0820151600582015560c0820151805161020c916006840191602090910190610230565b5060e091909101516007909101805460ff1916911515919091179055505050505050565b828054600181600116156101000203166002900490600052602060002090601f016020900481019282601f1061027157805160ff191683800117855561029e565b8280016001018555821561029e579182015b8281111561029e578251825591602001919060010190610283565b506102aa9291506102ae565b5090565b6102c891905b808211156102aa57600081556001016102b4565b90565b610911806102da6000396000f3fe6080604052600436106100565763ffffffff7c01000000000000000000000000000000000000000000000000000000006000350416630e283d69811461005b5780634c0e5a4d146102b15780634c2bdd88146104a5575b600080fd5b34801561006757600080fd5b506102af600480360360c081101561007e57600080fd5b81019060208101813564010000000081111561009957600080fd5b8201836020820111156100ab57600080fd5b803590602001918460018302840111640100000000831117156100cd57600080fd5b91908080601f016020809104026020016040519081016040528093929190818152602001838380828437600092019190915250929594936020810193503591505064010000000081111561012057600080fd5b82018360208201111561013257600080fd5b8035906020019184600183028401116401000000008311171561015457600080fd5b91908080601f01602080910402602001604051908101604052809392919081815260200183838082843760009201919091525092959493602081019350359150506401000000008111156101a757600080fd5b8201836020820111156101b957600080fd5b803590602001918460018302840111640100000000831117156101db57600080fd5b91908080601f016020809104026020016040519081016040528093929190818152602001838380828437600092019190915250929584359560208601359591945092506060810191506040013564010000000081111561023a57600080fd5b82018360208201111561024c57600080fd5b8035906020019184600183028401116401000000008311171561026e57600080fd5b91908080601f0160208091040260200160405190810160405280939291908181526020018383808284376000920191909152509295506104cc945050505050565b005b3480156102bd57600080fd5b506102db600480360360208110156102d457600080fd5b50356105c9565b60405180898152602001806020018060200180602001888152602001878152602001806020018615151515815260200185810385528c818151815260200191508051906020019080838360005b83811015610340578181015183820152602001610328565b50505050905090810190601f16801561036d5780820380516001836020036101000a031916815260200191505b5085810384528b5181528b516020918201918d019080838360005b838110156103a0578181015183820152602001610388565b50505050905090810190601f1680156103cd5780820380516001836020036101000a031916815260200191505b5085810383528a5181528a516020918201918c019080838360005b838110156104005781810151838201526020016103e8565b50505050905090810190601f16801561042d5780820380516001836020036101000a031916815260200191505b50858103825287518152875160209182019189019080838360005b83811015610460578181015183820152602001610448565b50505050905090810190601f16801561048d5780820380516001836020036101000a031916815260200191505b509c5050505050505050505050505060405180910390f35b3480156104b157600080fd5b506104ba610844565b60408051918252519081900360200190f35b600080546001908101808355604080516101008101825282815260208082018c81528284018c9052606083018b9052608083018a905260a0830189905260c0830188905260e08301879052938652848152919094208451815591518051929361053d9390850192919091019061084a565b506040820151805161055991600284019160209091019061084a565b506060820151805161057591600384019160209091019061084a565b506080820151600482015560a0820151600582015560c082015180516105a591600684019160209091019061084a565b5060e091909101516007909101805460ff1916911515919091179055505050505050565b600160208181526000928352604092839020805481840180548651600296821615610100026000190190911695909504601f810185900485028601850190965285855290949193929091908301828280156106655780601f1061063a57610100808354040283529160200191610665565b820191906000526020600020905b81548152906001019060200180831161064857829003601f168201915b50505060028085018054604080516020601f60001961010060018716150201909416959095049283018590048502810185019091528181529596959450909250908301828280156106f75780601f106106cc576101008083540402835291602001916106f7565b820191906000526020600020905b8154815290600101906020018083116106da57829003601f168201915b5050505060038301805460408051602060026001851615610100026000190190941693909304601f81018490048402820184019092528181529495949350908301828280156107875780601f1061075c57610100808354040283529160200191610787565b820191906000526020600020905b81548152906001019060200180831161076a57829003601f168201915b505050505090806004015490806005015490806006018054600181600116156101000203166002900480601f0160208091040260200160405190810160405280929190818152602001828054600181600116156101000203166002900480156108315780601f1061080657610100808354040283529160200191610831565b820191906000526020600020905b81548152906001019060200180831161081457829003601f168201915b5050506007909301549192505060ff1688565b60005481565b828054600181600116156101000203166002900490600052602060002090601f016020900481019282601f1061088b57805160ff19168380011785556108b8565b828001600101855582156108b8579182015b828111156108b857825182559160200191906001019061089d565b506108c49291506108c8565b5090565b6108e291905b808211156108c457600081556001016108ce565b9056fea165627a7a72305820f361b2461f65477ba7ad83b30228ed50e4dd7dc7569364d16ce26e1aab93afe60029",
  "source": "pragma solidity ^0.5.0;\n\ncontract Transacoes {\n    uint public qntdTransacoes = 0;\n\n    struct Transacao {\n        uint id;\n        string comprador;\n        string vendedor;\n        string produto;\n        uint preco;\n        uint quantidade;\n        string info_adicionais;\n        bool finalizada;\n    }\n\n    mapping(uint => Transacao) public transacoes;\n\n    constructor() public {\n        criarTransacao(\"Nome do Comprador\", \"Nome do Vendedor\", \"Nome do Produto\", 0, 0, \"Informações importantes adicionais\");\n    }\n\n    function criarTransacao(string memory _comprador, string memory _vendedor, string memory _produto, \n    uint _preco, uint _quantidade, string memory _info_adicionais) public {\n        qntdTransacoes ++;\n        transacoes[qntdTransacoes] = Transacao(qntdTransacoes, _comprador, _vendedor, _produto, _preco, _quantidade, _info_adicionais, false);\n    }\n}",
  "sourcePath": "/Users/giovannafilipakis/eth-produtos/contracts/Transacoes.sol",
  "compiler": {
    "name": "solc",
    "version": "0.5.0+commit.1d4f565a.Emscripten.clang"
  },
  "schemaVersion": "3.0.1",
  "updatedAt": "2020-06-12T02:45:15.594Z",
  "devdoc": {
    "methods": {}
  },
  "userdoc": {
    "methods": {}
  }
}